{
  "_format": "hh-sol-artifact-1",
  "contractName": "UniversalVerifier",
  "sourceName": "contracts/verifiers/UniversalVerifier.sol",
  "abi": [
    {
      "inputs": [],
      "name": "InvalidInitialization",
      "type": "error"
    },
    {
      "inputs": [
        {
          "internalType": "string",
          "name": "message",
          "type": "string"
        },
        {
          "internalType": "uint64",
          "name": "requestId",
          "type": "uint64"
        },
        {
          "internalType": "uint256",
          "name": "linkID",
          "type": "uint256"
        },
        {
          "internalType": "uint64",
          "name": "requestIdToCompare",
          "type": "uint64"
        },
        {
          "internalType": "uint256",
          "name": "linkIdToCompare",
          "type": "uint256"
        }
      ],
      "name": "LinkedProofError",
      "type": "error"
    },
    {
      "inputs": [],
      "name": "NotInitializing",
      "type": "error"
    },
    {
      "inputs": [
        {
          "internalType": "address",
          "name": "owner",
          "type": "address"
        }
      ],
      "name": "OwnableInvalidOwner",
      "type": "error"
    },
    {
      "inputs": [
        {
          "internalType": "address",
          "name": "account",
          "type": "address"
        }
      ],
      "name": "OwnableUnauthorizedAccount",
      "type": "error"
    },
    {
      "anonymous": false,
      "inputs": [
        {
          "indexed": false,
          "internalType": "uint64",
          "name": "version",
          "type": "uint64"
        }
      ],
      "name": "Initialized",
      "type": "event"
    },
    {
      "anonymous": false,
      "inputs": [
        {
          "indexed": true,
          "internalType": "address",
          "name": "previousOwner",
          "type": "address"
        },
        {
          "indexed": true,
          "internalType": "address",
          "name": "newOwner",
          "type": "address"
        }
      ],
      "name": "OwnershipTransferStarted",
      "type": "event"
    },
    {
      "anonymous": false,
      "inputs": [
        {
          "indexed": true,
          "internalType": "address",
          "name": "previousOwner",
          "type": "address"
        },
        {
          "indexed": true,
          "internalType": "address",
          "name": "newOwner",
          "type": "address"
        }
      ],
      "name": "OwnershipTransferred",
      "type": "event"
    },
    {
      "anonymous": false,
      "inputs": [
        {
          "indexed": true,
          "internalType": "uint64",
          "name": "requestId",
          "type": "uint64"
        },
        {
          "indexed": true,
          "internalType": "address",
          "name": "requestOwner",
          "type": "address"
        },
        {
          "indexed": false,
          "internalType": "string",
          "name": "metadata",
          "type": "string"
        },
        {
          "indexed": false,
          "internalType": "address",
          "name": "validator",
          "type": "address"
        },
        {
          "indexed": false,
          "internalType": "bytes",
          "name": "data",
          "type": "bytes"
        }
      ],
      "name": "ZKPRequestSet",
      "type": "event"
    },
    {
      "anonymous": false,
      "inputs": [
        {
          "indexed": true,
          "internalType": "uint64",
          "name": "requestId",
          "type": "uint64"
        },
        {
          "indexed": true,
          "internalType": "address",
          "name": "caller",
          "type": "address"
        }
      ],
      "name": "ZKPResponseSubmitted",
      "type": "event"
    },
    {
      "inputs": [],
      "name": "REQUESTS_RETURN_LIMIT",
      "outputs": [
        {
          "internalType": "uint256",
          "name": "",
          "type": "uint256"
        }
      ],
      "stateMutability": "view",
      "type": "function"
    },
    {
      "inputs": [],
      "name": "VERSION",
      "outputs": [
        {
          "internalType": "string",
          "name": "",
          "type": "string"
        }
      ],
      "stateMutability": "view",
      "type": "function"
    },
    {
      "inputs": [],
      "name": "acceptOwnership",
      "outputs": [],
      "stateMutability": "nonpayable",
      "type": "function"
    },
    {
      "inputs": [
        {
          "internalType": "contract ICircuitValidator",
          "name": "validator",
          "type": "address"
        }
      ],
      "name": "addValidatorToWhitelist",
      "outputs": [],
      "stateMutability": "nonpayable",
      "type": "function"
    },
    {
      "inputs": [
        {
          "internalType": "uint64",
          "name": "requestId",
          "type": "uint64"
        }
      ],
      "name": "disableZKPRequest",
      "outputs": [],
      "stateMutability": "nonpayable",
      "type": "function"
    },
    {
      "inputs": [
        {
          "internalType": "uint64",
          "name": "requestId",
          "type": "uint64"
        }
      ],
      "name": "enableZKPRequest",
      "outputs": [],
      "stateMutability": "nonpayable",
      "type": "function"
    },
    {
      "inputs": [
        {
          "internalType": "address",
          "name": "sender",
          "type": "address"
        },
        {
          "internalType": "uint64",
          "name": "requestId",
          "type": "uint64"
        }
      ],
      "name": "getProofStatus",
      "outputs": [
        {
          "components": [
            {
              "internalType": "bool",
              "name": "isVerified",
              "type": "bool"
            },
            {
              "internalType": "string",
              "name": "validatorVersion",
              "type": "string"
            },
            {
              "internalType": "uint256",
              "name": "blockNumber",
              "type": "uint256"
            },
            {
              "internalType": "uint256",
              "name": "blockTimestamp",
              "type": "uint256"
            }
          ],
          "internalType": "struct IZKPVerifier.ProofStatus",
          "name": "",
          "type": "tuple"
        }
      ],
      "stateMutability": "view",
      "type": "function"
    },
    {
      "inputs": [
        {
          "internalType": "address",
          "name": "user",
          "type": "address"
        },
        {
          "internalType": "uint64",
          "name": "requestId",
          "type": "uint64"
        },
        {
          "internalType": "string",
          "name": "key",
          "type": "string"
        }
      ],
      "name": "getProofStorageField",
      "outputs": [
        {
          "internalType": "uint256",
          "name": "",
          "type": "uint256"
        }
      ],
      "stateMutability": "view",
      "type": "function"
    },
    {
      "inputs": [
        {
          "internalType": "uint64",
          "name": "requestId",
          "type": "uint64"
        }
      ],
      "name": "getRequestOwner",
      "outputs": [
        {
          "internalType": "address",
          "name": "",
          "type": "address"
        }
      ],
      "stateMutability": "view",
      "type": "function"
    },
    {
      "inputs": [
        {
          "internalType": "uint64",
          "name": "requestId",
          "type": "uint64"
        }
      ],
      "name": "getZKPRequest",
      "outputs": [
        {
          "components": [
            {
              "internalType": "string",
              "name": "metadata",
              "type": "string"
            },
            {
              "internalType": "contract ICircuitValidator",
              "name": "validator",
              "type": "address"
            },
            {
              "internalType": "bytes",
              "name": "data",
              "type": "bytes"
            }
          ],
          "internalType": "struct IZKPVerifier.ZKPRequest",
          "name": "zkpRequest",
          "type": "tuple"
        }
      ],
      "stateMutability": "view",
      "type": "function"
    },
    {
      "inputs": [
        {
          "internalType": "uint256",
          "name": "startIndex",
          "type": "uint256"
        },
        {
          "internalType": "uint256",
          "name": "length",
          "type": "uint256"
        }
      ],
      "name": "getZKPRequests",
      "outputs": [
        {
          "components": [
            {
              "internalType": "string",
              "name": "metadata",
              "type": "string"
            },
            {
              "internalType": "contract ICircuitValidator",
              "name": "validator",
              "type": "address"
            },
            {
              "internalType": "bytes",
              "name": "data",
              "type": "bytes"
            }
          ],
          "internalType": "struct IZKPVerifier.ZKPRequest[]",
          "name": "",
          "type": "tuple[]"
        }
      ],
      "stateMutability": "view",
      "type": "function"
    },
    {
      "inputs": [],
      "name": "getZKPRequestsCount",
      "outputs": [
        {
          "internalType": "uint256",
          "name": "",
          "type": "uint256"
        }
      ],
      "stateMutability": "view",
      "type": "function"
    },
    {
      "inputs": [],
      "name": "initialize",
      "outputs": [],
      "stateMutability": "nonpayable",
      "type": "function"
    },
    {
      "inputs": [
        {
          "internalType": "address",
          "name": "sender",
          "type": "address"
        },
        {
          "internalType": "uint64",
          "name": "requestId",
          "type": "uint64"
        }
      ],
      "name": "isProofVerified",
      "outputs": [
        {
          "internalType": "bool",
          "name": "",
          "type": "bool"
        }
      ],
      "stateMutability": "view",
      "type": "function"
    },
    {
      "inputs": [
        {
          "internalType": "contract ICircuitValidator",
          "name": "validator",
          "type": "address"
        }
      ],
      "name": "isWhitelistedValidator",
      "outputs": [
        {
          "internalType": "bool",
          "name": "",
          "type": "bool"
        }
      ],
      "stateMutability": "view",
      "type": "function"
    },
    {
      "inputs": [
        {
          "internalType": "uint64",
          "name": "requestId",
          "type": "uint64"
        }
      ],
      "name": "isZKPRequestEnabled",
      "outputs": [
        {
          "internalType": "bool",
          "name": "",
          "type": "bool"
        }
      ],
      "stateMutability": "view",
      "type": "function"
    },
    {
      "inputs": [],
      "name": "owner",
      "outputs": [
        {
          "internalType": "address",
          "name": "",
          "type": "address"
        }
      ],
      "stateMutability": "view",
      "type": "function"
    },
    {
      "inputs": [],
      "name": "pendingOwner",
      "outputs": [
        {
          "internalType": "address",
          "name": "",
          "type": "address"
        }
      ],
      "stateMutability": "view",
      "type": "function"
    },
    {
      "inputs": [
        {
          "internalType": "contract ICircuitValidator",
          "name": "validator",
          "type": "address"
        }
      ],
      "name": "removeValidatorFromWhitelist",
      "outputs": [],
      "stateMutability": "nonpayable",
      "type": "function"
    },
    {
      "inputs": [],
      "name": "renounceOwnership",
      "outputs": [],
      "stateMutability": "nonpayable",
      "type": "function"
    },
    {
      "inputs": [
        {
          "internalType": "uint64",
          "name": "requestId",
          "type": "uint64"
        }
      ],
      "name": "requestIdExists",
      "outputs": [
        {
          "internalType": "bool",
          "name": "",
          "type": "bool"
        }
      ],
      "stateMutability": "view",
      "type": "function"
    },
    {
      "inputs": [
        {
          "internalType": "uint64",
          "name": "requestId",
          "type": "uint64"
        },
        {
          "internalType": "address",
          "name": "requestOwner",
          "type": "address"
        }
      ],
      "name": "setRequestOwner",
      "outputs": [],
      "stateMutability": "nonpayable",
      "type": "function"
    },
    {
      "inputs": [
        {
          "internalType": "uint64",
          "name": "requestId",
          "type": "uint64"
        },
        {
          "components": [
            {
              "internalType": "string",
              "name": "metadata",
              "type": "string"
            },
            {
              "internalType": "contract ICircuitValidator",
              "name": "validator",
              "type": "address"
            },
            {
              "internalType": "bytes",
              "name": "data",
              "type": "bytes"
            }
          ],
          "internalType": "struct IZKPVerifier.ZKPRequest",
          "name": "request",
          "type": "tuple"
        }
      ],
      "name": "setZKPRequest",
      "outputs": [],
      "stateMutability": "nonpayable",
      "type": "function"
    },
    {
      "inputs": [
        {
          "internalType": "uint64",
          "name": "requestId",
          "type": "uint64"
        },
        {
          "internalType": "uint256[]",
          "name": "inputs",
          "type": "uint256[]"
        },
        {
          "internalType": "uint256[2]",
          "name": "a",
          "type": "uint256[2]"
        },
        {
          "internalType": "uint256[2][2]",
          "name": "b",
          "type": "uint256[2][2]"
        },
        {
          "internalType": "uint256[2]",
          "name": "c",
          "type": "uint256[2]"
        }
      ],
      "name": "submitZKPResponse",
      "outputs": [],
      "stateMutability": "nonpayable",
      "type": "function"
    },
    {
      "inputs": [
        {
          "internalType": "address",
          "name": "newOwner",
          "type": "address"
        }
      ],
      "name": "transferOwnership",
      "outputs": [],
      "stateMutability": "nonpayable",
      "type": "function"
    },
    {
      "inputs": [
        {
          "internalType": "address",
          "name": "sender",
          "type": "address"
        },
        {
          "internalType": "uint64[]",
          "name": "requestIds",
          "type": "uint64[]"
        }
      ],
      "name": "verifyLinkedProofs",
      "outputs": [],
      "stateMutability": "view",
      "type": "function"
    },
    {
      "inputs": [
        {
          "internalType": "uint64",
          "name": "requestId",
          "type": "uint64"
        },
        {
          "internalType": "uint256[]",
          "name": "inputs",
          "type": "uint256[]"
        },
        {
          "internalType": "uint256[2]",
          "name": "a",
          "type": "uint256[2]"
        },
        {
          "internalType": "uint256[2][2]",
          "name": "b",
          "type": "uint256[2][2]"
        },
        {
          "internalType": "uint256[2]",
          "name": "c",
          "type": "uint256[2]"
        },
        {
          "internalType": "address",
          "name": "sender",
          "type": "address"
        }
      ],
      "name": "verifyZKPResponse",
      "outputs": [
        {
          "components": [
            {
              "internalType": "string",
              "name": "key",
              "type": "string"
            },
            {
              "internalType": "uint256",
              "name": "inputIndex",
              "type": "uint256"
            }
          ],
          "internalType": "struct ICircuitValidator.KeyToInputIndex[]",
          "name": "",
          "type": "tuple[]"
        }
      ],
      "stateMutability": "view",
      "type": "function"
    },
    {
      "inputs": [],
      "name": "version",
      "outputs": [
        {
          "internalType": "string",
          "name": "",
          "type": "string"
        }
      ],
      "stateMutability": "pure",
      "type": "function"
    }
  ],
  "bytecode": "0x608060405234801561001057600080fd5b50615034806100206000396000f3fe608060405234801561001057600080fd5b50600436106101c45760003560e01c80638129fc1c116100f9578063b68967e211610097578063d485805111610071578063d4858051146104ef578063e30c39781461051f578063f2fde38b1461053d578063ffa1ad7414610559576101c4565b8063b68967e214610487578063c76d0845146104a3578063c9c23ea5146104d3576101c4565b80638da5cb5b116100d35780638da5cb5b146103ed5780639b36d0361461040b5780639f5223e01461043b578063ab7bcfb714610457576101c4565b80638129fc1c1461039757806382aff29f146103a15780638c1da2c9146103bd576101c4565b806359f871a1116101665780636508e1b4116101405780636508e1b4146103355780636f2477ad14610353578063715018a61461038357806379ba50971461038d576101c4565b806359f871a1146102cd5780635f9e60d7146102e9578063617879fe14610319576101c4565b806330def4ac116101a257806330def4ac1461023357806349555fb11461024f5780635176983b1461027f57806354fd4d50146102af576101c4565b80630106a959146101c9578063130a73ac146101e55780631905e7b114610215575b600080fd5b6101e360048036038101906101de9190612fa9565b610577565b005b6101ff60048036038101906101fa9190613049565b61079d565b60405161020c9190613091565b60405180910390f35b61021d610887565b60405161022a91906130c5565b60405180910390f35b61024d60048036038101906102489190613049565b61088d565b005b610269600480360381019061026491906130e0565b61095b565b6040516102769190613091565b60405180910390f35b610299600480360381019061029491906131ba565b610a85565b6040516102a6919061340a565b60405180910390f35b6102b7610aa3565b6040516102c49190613476565b60405180910390f35b6102e760048036038101906102e291906134d6565b610ae0565b005b61030360048036038101906102fe919061352f565b610af4565b604051610310919061373c565b60405180910390f35b610333600480360381019061032e91906134d6565b610dc6565b005b61033d610dda565b60405161034a91906130c5565b60405180910390f35b61036d60048036038101906103689190613049565b610df0565b60405161037a919061376d565b60405180910390f35b61038b610eec565b005b610395610f00565b005b61039f610f8f565b005b6103bb60048036038101906103b69190613049565b611124565b005b6103d760048036038101906103d291906130e0565b6111f2565b6040516103e491906137fa565b60405180910390f35b6103f56113de565b604051610402919061376d565b60405180910390f35b610425600480360381019061042091906134d6565b611416565b6040516104329190613091565b60405180910390f35b61045560048036038101906104509190613840565b611475565b005b610471600480360381019061046c9190613049565b611519565b60405161047e9190613091565b60405180910390f35b6104a1600480360381019061049c919061389c565b6115a5565b005b6104bd60048036038101906104b89190613049565b611610565b6040516104ca919061398f565b60405180910390f35b6104ed60048036038101906104e891906139b1565b611876565b005b61050960048036038101906105049190613b21565b611946565b60405161051691906130c5565b60405180910390f35b610527611a80565b604051610534919061376d565b60405180910390f35b61055760048036038101906105529190613b90565b611ab8565b005b610561611b74565b60405161056e9190613476565b60405180910390f35b600182829050116105bd576040517f08c379a00000000000000000000000000000000000000000000000000000000081526004016105b490613c2f565b60405180910390fd5b600061062784848460008181106105d7576105d6613c4f565b5b90506020020160208101906105ec9190613049565b6040518060400160405280600681526020017f6c696e6b49440000000000000000000000000000000000000000000000000000815250611946565b90506000810361066c576040517f08c379a000000000000000000000000000000000000000000000000000000000815260040161066390613cf0565b60405180910390fd5b6000600190505b838390508110156107965760006106e78686868581811061069757610696613c4f565b5b90506020020160208101906106ac9190613049565b6040518060400160405280600681526020017f6c696e6b49440000000000000000000000000000000000000000000000000000815250611946565b9050808314610782578484600081811061070457610703613c4f565b5b90506020020160208101906107199190613049565b8386868581811061072d5761072c613c4f565b5b90506020020160208101906107429190613049565b836040517f0cb82c030000000000000000000000000000000000000000000000000000000081526004016107799493929190613d6b565b60405180910390fd5b50808061078e90613df2565b915050610673565b5050505050565b600081600180156107f5576107b182611519565b6107f0576040517f08c379a00000000000000000000000000000000000000000000000000000000081526004016107e790613e86565b60405180910390fd5b61083f565b6107fe82611519565b1561083e576040517f08c379a000000000000000000000000000000000000000000000000000000000815260040161083590613ef2565b60405180910390fd5b5b610847611bad565b60000160008567ffffffffffffffff1667ffffffffffffffff16815260200190815260200160002060009054906101000a900460ff161592505050919050565b6103e881565b806000610898611bd5565b90506108a382610df0565b73ffffffffffffffffffffffffffffffffffffffff168173ffffffffffffffffffffffffffffffffffffffff16148061090e57506108df6113de565b73ffffffffffffffffffffffffffffffffffffffff168173ffffffffffffffffffffffffffffffffffffffff16145b61094d576040517f08c379a000000000000000000000000000000000000000000000000000000000815260040161094490613f5e565b60405180910390fd5b61095683611bdd565b505050565b600081600180156109b35761096f82611519565b6109ae576040517f08c379a00000000000000000000000000000000000000000000000000000000081526004016109a590613e86565b60405180910390fd5b6109fd565b6109bc82611519565b156109fc576040517f08c379a00000000000000000000000000000000000000000000000000000000081526004016109f390613ef2565b60405180910390fd5b5b610a05611ccb565b60000160008673ffffffffffffffffffffffffffffffffffffffff1673ffffffffffffffffffffffffffffffffffffffff16815260200190815260200160002060008567ffffffffffffffff1667ffffffffffffffff16815260200190815260200160002060000160009054906101000a900460ff169250505092915050565b6060610a9688888888888888611cf3565b9050979650505050505050565b60606040518060400160405280600581526020017f312e302e31000000000000000000000000000000000000000000000000000000815250905090565b610ae8611d6b565b610af181611df2565b50565b60606000610b00611ccb565b9050600080610b1a836002018054905087876103e8611f2f565b9150915060008282610b2c9190613f7e565b67ffffffffffffffff811115610b4557610b446139f6565b5b604051908082528060200260200182016040528015610b7e57816020015b610b6b612e71565b815260200190600190039081610b635790505b50905060008390505b82811015610db857846001016000866002018381548110610bab57610baa613c4f565b5b90600052602060002090600491828204019190066008029054906101000a900467ffffffffffffffff1667ffffffffffffffff1667ffffffffffffffff168152602001908152602001600020604051806060016040529081600082018054610c1290613fe1565b80601f0160208091040260200160405190810160405280929190818152602001828054610c3e90613fe1565b8015610c8b5780601f10610c6057610100808354040283529160200191610c8b565b820191906000526020600020905b815481529060010190602001808311610c6e57829003601f168201915b505050505081526020016001820160009054906101000a900473ffffffffffffffffffffffffffffffffffffffff1673ffffffffffffffffffffffffffffffffffffffff1673ffffffffffffffffffffffffffffffffffffffff168152602001600282018054610cfa90613fe1565b80601f0160208091040260200160405190810160405280929190818152602001828054610d2690613fe1565b8015610d735780601f10610d4857610100808354040283529160200191610d73565b820191906000526020600020905b815481529060010190602001808311610d5657829003601f168201915b505050505081525050828583610d899190613f7e565b81518110610d9a57610d99613c4f565b5b60200260200101819052508080610db090613df2565b915050610b87565b508094505050505092915050565b610dce611d6b565b610dd781612026565b50565b6000610de4611ccb565b60020180549050905090565b60008160018015610e4857610e0482611519565b610e43576040517f08c379a0000000000000000000000000000000000000000000000000000000008152600401610e3a90613e86565b60405180910390fd5b610e92565b610e5182611519565b15610e91576040517f08c379a0000000000000000000000000000000000000000000000000000000008152600401610e8890613ef2565b60405180910390fd5b5b610e9a61208a565b60000160008567ffffffffffffffff1667ffffffffffffffff16815260200190815260200160002060009054906101000a900473ffffffffffffffffffffffffffffffffffffffff1692505050919050565b610ef4611d6b565b610efe60006120b2565b565b6000610f0a611bd5565b90508073ffffffffffffffffffffffffffffffffffffffff16610f2b611a80565b73ffffffffffffffffffffffffffffffffffffffff1614610f8357806040517f118cdaa7000000000000000000000000000000000000000000000000000000008152600401610f7a919061376d565b60405180910390fd5b610f8c816120b2565b50565b6000610f996120f2565b905060008160000160089054906101000a900460ff1615905060008260000160009054906101000a900467ffffffffffffffff1690506000808267ffffffffffffffff16148015610fe75750825b9050600060018367ffffffffffffffff1614801561101c575060003073ffffffffffffffffffffffffffffffffffffffff163b145b90508115801561102a575080155b15611061576040517ff92ee8a900000000000000000000000000000000000000000000000000000000815260040160405180910390fd5b60018560000160006101000a81548167ffffffffffffffff021916908367ffffffffffffffff16021790555083156110b15760018560000160086101000a81548160ff0219169083151502179055505b6110c16110bc611bd5565b61211a565b831561111d5760008560000160086101000a81548160ff0219169083151502179055507fc7f505b2f371ae2175ee4913f4499e1f2633a7b5936321eed1cdaeb6115181d26001604051611114919061404d565b60405180910390a15b5050505050565b80600061112f611bd5565b905061113a82610df0565b73ffffffffffffffffffffffffffffffffffffffff168173ffffffffffffffffffffffffffffffffffffffff1614806111a557506111766113de565b73ffffffffffffffffffffffffffffffffffffffff168173ffffffffffffffffffffffffffffffffffffffff16145b6111e4576040517f08c379a00000000000000000000000000000000000000000000000000000000081526004016111db90613f5e565b60405180910390fd5b6111ed8361212e565b505050565b6111fa612ea8565b81600180156112505761120c82611519565b61124b576040517f08c379a000000000000000000000000000000000000000000000000000000000815260040161124290613e86565b60405180910390fd5b61129a565b61125982611519565b15611299576040517f08c379a000000000000000000000000000000000000000000000000000000000815260040161129090613ef2565b60405180910390fd5b5b60006112a4611ccb565b60000160008773ffffffffffffffffffffffffffffffffffffffff1673ffffffffffffffffffffffffffffffffffffffff16815260200190815260200160002060008667ffffffffffffffff1667ffffffffffffffff168152602001908152602001600020905060405180608001604052808260000160009054906101000a900460ff161515815260200182600201805461133e90613fe1565b80601f016020809104026020016040519081016040528092919081815260200182805461136a90613fe1565b80156113b75780601f1061138c576101008083540402835291602001916113b7565b820191906000526020600020905b81548152906001019060200180831161139a57829003601f168201915b50505050508152602001826003015481526020018260040154815250935050505092915050565b6000806113e961221c565b90508060000160009054906101000a900473ffffffffffffffffffffffffffffffffffffffff1691505090565b6000611420612244565b60000160008373ffffffffffffffffffffffffffffffffffffffff1673ffffffffffffffffffffffffffffffffffffffff16815260200190815260200160002060009054906101000a900460ff169050919050565b61147f828261226c565b611487611bd5565b73ffffffffffffffffffffffffffffffffffffffff168267ffffffffffffffff167f26db2c5d21d517fa8c11af3ae555af7f4a560b9f70a5a32e73e6cd94d0cae3e88380600001906114d99190614077565b8560200160208101906114ec91906134d6565b8680604001906114fc91906140da565b60405161150d9594939291906141a8565b60405180910390a35050565b60008073ffffffffffffffffffffffffffffffffffffffff1661153a611ccb565b60010160008467ffffffffffffffff1667ffffffffffffffff16815260200190815260200160002060010160009054906101000a900473ffffffffffffffffffffffffffffffffffffffff1673ffffffffffffffffffffffffffffffffffffffff1614159050919050565b6115b38686868686866122d6565b6115bb611bd5565b73ffffffffffffffffffffffffffffffffffffffff168667ffffffffffffffff167f6979bc9c3e552c05dd9859285f1ed7a172e52ef39e1dce9c720e5bf8d82c9f4c60405160405180910390a3505050505050565b611618612e71565b816001801561166e5761162a82611519565b611669576040517f08c379a000000000000000000000000000000000000000000000000000000000815260040161166090613e86565b60405180910390fd5b6116b8565b61167782611519565b156116b7576040517f08c379a00000000000000000000000000000000000000000000000000000000081526004016116ae90613ef2565b60405180910390fd5b5b6116c0611ccb565b60010160008567ffffffffffffffff1667ffffffffffffffff16815260200190815260200160002060405180606001604052908160008201805461170390613fe1565b80601f016020809104026020016040519081016040528092919081815260200182805461172f90613fe1565b801561177c5780601f106117515761010080835404028352916020019161177c565b820191906000526020600020905b81548152906001019060200180831161175f57829003601f168201915b505050505081526020016001820160009054906101000a900473ffffffffffffffffffffffffffffffffffffffff1673ffffffffffffffffffffffffffffffffffffffff1673ffffffffffffffffffffffffffffffffffffffff1681526020016002820180546117eb90613fe1565b80601f016020809104026020016040519081016040528092919081815260200182805461181790613fe1565b80156118645780601f1061183957610100808354040283529160200191611864565b820191906000526020600020905b81548152906001019060200180831161184757829003601f168201915b50505050508152505092505050919050565b816000611881611bd5565b905061188c82610df0565b73ffffffffffffffffffffffffffffffffffffffff168173ffffffffffffffffffffffffffffffffffffffff1614806118f757506118c86113de565b73ffffffffffffffffffffffffffffffffffffffff168173ffffffffffffffffffffffffffffffffffffffff16145b611936576040517f08c379a000000000000000000000000000000000000000000000000000000000815260040161192d90613f5e565b60405180910390fd5b6119408484612346565b50505050565b6000826001801561199e5761195a82611519565b611999576040517f08c379a000000000000000000000000000000000000000000000000000000000815260040161199090613e86565b60405180910390fd5b6119e8565b6119a782611519565b156119e7576040517f08c379a00000000000000000000000000000000000000000000000000000000081526004016119de90613ef2565b60405180910390fd5b5b6119f0611ccb565b60000160008773ffffffffffffffffffffffffffffffffffffffff1673ffffffffffffffffffffffffffffffffffffffff16815260200190815260200160002060008667ffffffffffffffff1667ffffffffffffffff16815260200190815260200160002060010184604051611a66919061422d565b908152602001604051809103902054925050509392505050565b600080611a8b612461565b90508060000160009054906101000a900473ffffffffffffffffffffffffffffffffffffffff1691505090565b611ac0611d6b565b6000611aca612461565b9050818160000160006101000a81548173ffffffffffffffffffffffffffffffffffffffff021916908373ffffffffffffffffffffffffffffffffffffffff1602179055508173ffffffffffffffffffffffffffffffffffffffff16611b2e6113de565b73ffffffffffffffffffffffffffffffffffffffff167f38d16b8cac22d99fc7c124b9cd0de2d3fa1faef420bfe791d8c362d765e2270060405160405180910390a35050565b6040518060400160405280600581526020017f312e302e3100000000000000000000000000000000000000000000000000000081525081565b60007f70325635d67d74932012fa921ccb2f335d3b1d69e3a487f50d001cc65f531600905090565b600033905090565b8060018015611c3357611bef82611519565b611c2e576040517f08c379a0000000000000000000000000000000000000000000000000000000008152600401611c2590613e86565b60405180910390fd5b611c7d565b611c3c82611519565b15611c7c576040517f08c379a0000000000000000000000000000000000000000000000000000000008152600401611c7390613ef2565b60405180910390fd5b5b6000611c87611bad565b60000160008567ffffffffffffffff1667ffffffffffffffff16815260200190815260200160002060006101000a81548160ff021916908315150217905550505050565b60007f512d18c55869273fec77e70d8a8586e3fb133e90f1db24c6bcf4ff3506ef6a00905090565b60606000611d0089611610565b602001519050611d0f81611416565b611d4e576040517f08c379a0000000000000000000000000000000000000000000000000000000008152600401611d4590614290565b60405180910390fd5b611d5d89898989898989612489565b915050979650505050505050565b611d73611bd5565b73ffffffffffffffffffffffffffffffffffffffff16611d916113de565b73ffffffffffffffffffffffffffffffffffffffff1614611df057611db4611bd5565b6040517f118cdaa7000000000000000000000000000000000000000000000000000000008152600401611de7919061376d565b60405180910390fd5b565b8073ffffffffffffffffffffffffffffffffffffffff166301ffc9a77fefba2023000000000000000000000000000000000000000000000000000000006040518263ffffffff1660e01b8152600401611e4b91906142eb565b602060405180830381865afa158015611e68573d6000803e3d6000fd5b505050506040513d601f19601f82011682018060405250810190611e8c9190614332565b611ecb576040517f08c379a0000000000000000000000000000000000000000000000000000000008152600401611ec2906143d1565b60405180910390fd5b6001611ed5612244565b60000160008373ffffffffffffffffffffffffffffffffffffffff1673ffffffffffffffffffffffffffffffffffffffff16815260200190815260200160002060006101000a81548160ff02191690831515021790555050565b60008060008411611f75576040517f08c379a0000000000000000000000000000000000000000000000000000000008152600401611f6c9061443d565b60405180910390fd5b82841115611fb8576040517f08c379a0000000000000000000000000000000000000000000000000000000008152600401611faf906144a9565b60405180910390fd5b858510611ffa576040517f08c379a0000000000000000000000000000000000000000000000000000000008152600401611ff190614515565b60405180910390fd5b600084866120089190614535565b905086811115612016578690505b8581925092505094509492505050565b6000612030612244565b60000160008373ffffffffffffffffffffffffffffffffffffffff1673ffffffffffffffffffffffffffffffffffffffff16815260200190815260200160002060006101000a81548160ff02191690831515021790555050565b60007f6209bdc3799f5201408f7a7d4d471bb2a0100353e618451674b93f730b006a00905090565b60006120bc612461565b90508060000160006101000a81549073ffffffffffffffffffffffffffffffffffffffff02191690556120ee826124f1565b5050565b60007ff0c57e16840df040f15088dc2f81fe391c3923bec73e23a9662efc9c229c6a00905090565b6121226125c8565b61212b81612608565b50565b80600180156121845761214082611519565b61217f576040517f08c379a000000000000000000000000000000000000000000000000000000000815260040161217690613e86565b60405180910390fd5b6121ce565b61218d82611519565b156121cd576040517f08c379a00000000000000000000000000000000000000000000000000000000081526004016121c490613ef2565b60405180910390fd5b5b60016121d8611bad565b60000160008567ffffffffffffffff1667ffffffffffffffff16815260200190815260200160002060006101000a81548160ff021916908315150217905550505050565b60007f9016d09d72d40fdae2fd8ceac6b6234c7706214fd39c1cd1e609a0528c199300905090565b60007f76aa24e3538905838cc74060b2aa4c054b1e474aacf44741879e1850715e9300905090565b80602001602081019061227f91906134d6565b61228881611416565b6122c7576040517f08c379a00000000000000000000000000000000000000000000000000000000081526004016122be90614290565b60405180910390fd5b6122d1838361268e565b505050565b60006122e187611610565b6020015190506122f081611416565b61232f576040517f08c379a000000000000000000000000000000000000000000000000000000000815260040161232690614290565b60405180910390fd5b61233d8787878787876126ad565b50505050505050565b816001801561239c5761235882611519565b612397576040517f08c379a000000000000000000000000000000000000000000000000000000000815260040161238e90613e86565b60405180910390fd5b6123e6565b6123a582611519565b156123e5576040517f08c379a00000000000000000000000000000000000000000000000000000000081526004016123dc90613ef2565b60405180910390fd5b5b60006123f061208a565b9050838160000160008767ffffffffffffffff1667ffffffffffffffff16815260200190815260200160002060006101000a81548173ffffffffffffffffffffffffffffffffffffffff021916908373ffffffffffffffffffffffffffffffffffffffff1602179055505050505050565b60007f237e158222e3e6968b72b9db0d8043aacf074ad9f650f0d1606b4d82ee432c00905090565b6060876124958161079d565b6124d4576040517f08c379a00000000000000000000000000000000000000000000000000000000081526004016124cb906145b5565b60405180910390fd5b6124e38989898989898961270d565b915050979650505050505050565b60006124fb61221c565b905060008160000160009054906101000a900473ffffffffffffffffffffffffffffffffffffffff169050828260000160006101000a81548173ffffffffffffffffffffffffffffffffffffffff021916908373ffffffffffffffffffffffffffffffffffffffff1602179055508273ffffffffffffffffffffffffffffffffffffffff168173ffffffffffffffffffffffffffffffffffffffff167f8be0079c531659141344cd1fd0a4f28419497f9722a3daafe3b4186f6b6457e060405160405180910390a3505050565b6125d06127cd565b612606576040517fd7e6bcf800000000000000000000000000000000000000000000000000000000815260040160405180910390fd5b565b6126106125c8565b600073ffffffffffffffffffffffffffffffffffffffff168173ffffffffffffffffffffffffffffffffffffffff16036126825760006040517f1e4fbdf7000000000000000000000000000000000000000000000000000000008152600401612679919061376d565b60405180910390fd5b61268b816120b2565b50565b61269882826127ed565b6126a9826126a4611bd5565b612346565b5050565b856126b78161079d565b6126f6576040517f08c379a00000000000000000000000000000000000000000000000000000000081526004016126ed906145b5565b60405180910390fd5b612704878787878787612931565b50505050505050565b606087600180156127655761272182611519565b612760576040517f08c379a000000000000000000000000000000000000000000000000000000000815260040161275790613e86565b60405180910390fd5b6127af565b61276e82611519565b156127ae576040517f08c379a00000000000000000000000000000000000000000000000000000000081526004016127a590613ef2565b60405180910390fd5b5b6127be8a8a8a8a8a8a8a612c0f565b92505050979650505050505050565b60006127d76120f2565b60000160089054906101000a900460ff16905090565b8160008015612843576127ff82611519565b61283e576040517f08c379a000000000000000000000000000000000000000000000000000000000815260040161283590613e86565b60405180910390fd5b61288d565b61284c82611519565b1561288c576040517f08c379a000000000000000000000000000000000000000000000000000000000815260040161288390613ef2565b60405180910390fd5b5b6000612897611ccb565b9050838160010160008767ffffffffffffffff1667ffffffffffffffff16815260200190815260200160002081816128cf9190614ab9565b905050806002018590806001815401808255809150506001900390600052602060002090600491828204019190066008029091909190916101000a81548167ffffffffffffffff021916908367ffffffffffffffff1602179055505050505050565b85600180156129875761294382611519565b612982576040517f08c379a000000000000000000000000000000000000000000000000000000000815260040161297990613e86565b60405180910390fd5b6129d1565b61299082611519565b156129d0576040517f08c379a00000000000000000000000000000000000000000000000000000000081526004016129c790613ef2565b60405180910390fd5b5b60006129db611bd5565b905060006129ee8a8a8a8a8a8a88612c0f565b905060006129fa611ccb565b60000160008473ffffffffffffffffffffffffffffffffffffffff1673ffffffffffffffffffffffffffffffffffffffff16815260200190815260200160002060008c67ffffffffffffffff1667ffffffffffffffff168152602001908152602001600020905060005b8251811015612afa578a8a848381518110612a8257612a81613c4f565b5b602002602001015160200151818110612a9e57612a9d613c4f565b5b9050602002013582600101848381518110612abc57612abb613c4f565b5b602002602001015160000151604051612ad5919061422d565b9081526020016040518091039020819055508080612af290613df2565b915050612a64565b5060018160000160006101000a81548160ff021916908315150217905550612b20611ccb565b60010160008c67ffffffffffffffff1667ffffffffffffffff16815260200190815260200160002060010160009054906101000a900473ffffffffffffffffffffffffffffffffffffffff1673ffffffffffffffffffffffffffffffffffffffff166354fd4d506040518163ffffffff1660e01b8152600401600060405180830381865afa158015612bb6573d6000803e3d6000fd5b505050506040513d6000823e3d601f19601f82011682018060405250810190612bdf9190614b37565b816002019081612bef9190614b80565b504381600301819055504281600401819055505050505050505050505050565b60606000612c1b611ccb565b60010160008a67ffffffffffffffff1667ffffffffffffffff168152602001908152602001600020604051806060016040529081600082018054612c5e90613fe1565b80601f0160208091040260200160405190810160405280929190818152602001828054612c8a90613fe1565b8015612cd75780601f10612cac57610100808354040283529160200191612cd7565b820191906000526020600020905b815481529060010190602001808311612cba57829003601f168201915b505050505081526020016001820160009054906101000a900473ffffffffffffffffffffffffffffffffffffffff1673ffffffffffffffffffffffffffffffffffffffff1673ffffffffffffffffffffffffffffffffffffffff168152602001600282018054612d4690613fe1565b80601f0160208091040260200160405190810160405280929190818152602001828054612d7290613fe1565b8015612dbf5780601f10612d9457610100808354040283529160200191612dbf565b820191906000526020600020905b815481529060010190602001808311612da257829003601f168201915b50505050508152505090506000816020015173ffffffffffffffffffffffffffffffffffffffff1663f177a69e8a8a8a8a8a88604001518b6040518863ffffffff1660e01b8152600401612e199796959493929190614dd5565b600060405180830381865afa158015612e36573d6000803e3d6000fd5b505050506040513d6000823e3d601f19601f82011682018060405250810190612e5f9190614fb5565b90508092505050979650505050505050565b604051806060016040528060608152602001600073ffffffffffffffffffffffffffffffffffffffff168152602001606081525090565b60405180608001604052806000151581526020016060815260200160008152602001600081525090565b6000604051905090565b600080fd5b600080fd5b600073ffffffffffffffffffffffffffffffffffffffff82169050919050565b6000612f1182612ee6565b9050919050565b612f2181612f06565b8114612f2c57600080fd5b50565b600081359050612f3e81612f18565b92915050565b600080fd5b600080fd5b600080fd5b60008083601f840112612f6957612f68612f44565b5b8235905067ffffffffffffffff811115612f8657612f85612f49565b5b602083019150836020820283011115612fa257612fa1612f4e565b5b9250929050565b600080600060408486031215612fc257612fc1612edc565b5b6000612fd086828701612f2f565b935050602084013567ffffffffffffffff811115612ff157612ff0612ee1565b5b612ffd86828701612f53565b92509250509250925092565b600067ffffffffffffffff82169050919050565b61302681613009565b811461303157600080fd5b50565b6000813590506130438161301d565b92915050565b60006020828403121561305f5761305e612edc565b5b600061306d84828501613034565b91505092915050565b60008115159050919050565b61308b81613076565b82525050565b60006020820190506130a66000830184613082565b92915050565b6000819050919050565b6130bf816130ac565b82525050565b60006020820190506130da60008301846130b6565b92915050565b600080604083850312156130f7576130f6612edc565b5b600061310585828601612f2f565b925050602061311685828601613034565b9150509250929050565b60008083601f84011261313657613135612f44565b5b8235905067ffffffffffffffff81111561315357613152612f49565b5b60208301915083602082028301111561316f5761316e612f4e565b5b9250929050565b60008190508260206002028201111561319257613191612f4e565b5b92915050565b6000819050826040600202820111156131b4576131b3612f4e565b5b92915050565b6000806000806000806000610160888a0312156131da576131d9612edc565b5b60006131e88a828b01613034565b975050602088013567ffffffffffffffff81111561320957613208612ee1565b5b6132158a828b01613120565b965096505060406132288a828b01613176565b94505060806132398a828b01613198565b93505061010061324b8a828b01613176565b92505061014061325d8a828b01612f2f565b91505092959891949750929550565b600081519050919050565b600082825260208201905092915050565b6000819050602082019050919050565b600081519050919050565b600082825260208201905092915050565b60005b838110156132d25780820151818401526020810190506132b7565b60008484015250505050565b6000601f19601f8301169050919050565b60006132fa82613298565b61330481856132a3565b93506133148185602086016132b4565b61331d816132de565b840191505092915050565b613331816130ac565b82525050565b6000604083016000830151848203600086015261335482826132ef565b91505060208301516133696020860182613328565b508091505092915050565b60006133808383613337565b905092915050565b6000602082019050919050565b60006133a08261326c565b6133aa8185613277565b9350836020820285016133bc85613288565b8060005b858110156133f857848403895281516133d98582613374565b94506133e483613388565b925060208a019950506001810190506133c0565b50829750879550505050505092915050565b600060208201905081810360008301526134248184613395565b905092915050565b600082825260208201905092915050565b600061344882613298565b613452818561342c565b93506134628185602086016132b4565b61346b816132de565b840191505092915050565b60006020820190508181036000830152613490818461343d565b905092915050565b60006134a382612f06565b9050919050565b6134b381613498565b81146134be57600080fd5b50565b6000813590506134d0816134aa565b92915050565b6000602082840312156134ec576134eb612edc565b5b60006134fa848285016134c1565b91505092915050565b61350c816130ac565b811461351757600080fd5b50565b60008135905061352981613503565b92915050565b6000806040838503121561354657613545612edc565b5b60006135548582860161351a565b92505060206135658582860161351a565b9150509250929050565b600081519050919050565b600082825260208201905092915050565b6000819050602082019050919050565b6000819050919050565b60006135c06135bb6135b684612ee6565b61359b565b612ee6565b9050919050565b60006135d2826135a5565b9050919050565b60006135e4826135c7565b9050919050565b6135f4816135d9565b82525050565b600081519050919050565b600082825260208201905092915050565b6000613621826135fa565b61362b8185613605565b935061363b8185602086016132b4565b613644816132de565b840191505092915050565b6000606083016000830151848203600086015261366c82826132ef565b915050602083015161368160208601826135eb565b50604083015184820360408601526136998282613616565b9150508091505092915050565b60006136b2838361364f565b905092915050565b6000602082019050919050565b60006136d28261356f565b6136dc818561357a565b9350836020820285016136ee8561358b565b8060005b8581101561372a578484038952815161370b85826136a6565b9450613716836136ba565b925060208a019950506001810190506136f2565b50829750879550505050505092915050565b6000602082019050818103600083015261375681846136c7565b905092915050565b61376781612f06565b82525050565b6000602082019050613782600083018461375e565b92915050565b61379181613076565b82525050565b60006080830160008301516137af6000860182613788565b50602083015184820360208601526137c782826132ef565b91505060408301516137dc6040860182613328565b5060608301516137ef6060860182613328565b508091505092915050565b600060208201905081810360008301526138148184613797565b905092915050565b600080fd5b6000606082840312156138375761383661381c565b5b81905092915050565b6000806040838503121561385757613856612edc565b5b600061386585828601613034565b925050602083013567ffffffffffffffff81111561388657613885612ee1565b5b61389285828601613821565b9150509250929050565b60008060008060008061014087890312156138ba576138b9612edc565b5b60006138c889828a01613034565b965050602087013567ffffffffffffffff8111156138e9576138e8612ee1565b5b6138f589828a01613120565b9550955050604061390889828a01613176565b935050608061391989828a01613198565b92505061010061392b89828a01613176565b9150509295509295509295565b6000606083016000830151848203600086015261395582826132ef565b915050602083015161396a60208601826135eb565b50604083015184820360408601526139828282613616565b9150508091505092915050565b600060208201905081810360008301526139a98184613938565b905092915050565b600080604083850312156139c8576139c7612edc565b5b60006139d685828601613034565b92505060206139e785828601612f2f565b9150509250929050565b600080fd5b7f4e487b7100000000000000000000000000000000000000000000000000000000600052604160045260246000fd5b613a2e826132de565b810181811067ffffffffffffffff82111715613a4d57613a4c6139f6565b5b80604052505050565b6000613a60612ed2565b9050613a6c8282613a25565b919050565b600067ffffffffffffffff821115613a8c57613a8b6139f6565b5b613a95826132de565b9050602081019050919050565b82818337600083830152505050565b6000613ac4613abf84613a71565b613a56565b905082815260208101848484011115613ae057613adf6139f1565b5b613aeb848285613aa2565b509392505050565b600082601f830112613b0857613b07612f44565b5b8135613b18848260208601613ab1565b91505092915050565b600080600060608486031215613b3a57613b39612edc565b5b6000613b4886828701612f2f565b9350506020613b5986828701613034565b925050604084013567ffffffffffffffff811115613b7a57613b79612ee1565b5b613b8686828701613af3565b9150509250925092565b600060208284031215613ba657613ba5612edc565b5b6000613bb484828501612f2f565b91505092915050565b7f4c696e6b65642070726f6f6620766572696669636174696f6e206e656564732060008201527f6d6f7265207468616e2031207265717565737400000000000000000000000000602082015250565b6000613c1960338361342c565b9150613c2482613bbd565b604082019050919050565b60006020820190508181036000830152613c4881613c0c565b9050919050565b7f4e487b7100000000000000000000000000000000000000000000000000000000600052603260045260246000fd5b7f43616e27742066696e64206c696e6b494420666f7220676976656e207265717560008201527f6573742049647320616e64207573657220616464726573730000000000000000602082015250565b6000613cda60388361342c565b9150613ce582613c7e565b604082019050919050565b60006020820190508181036000830152613d0981613ccd565b9050919050565b7f50726f6f667320617265206e6f74206c696e6b65640000000000000000000000600082015250565b6000613d4660158361342c565b9150613d5182613d10565b602082019050919050565b613d6581613009565b82525050565b600060a0820190508181036000830152613d8481613d39565b9050613d936020830187613d5c565b613da060408301866130b6565b613dad6060830185613d5c565b613dba60808301846130b6565b95945050505050565b7f4e487b7100000000000000000000000000000000000000000000000000000000600052601160045260246000fd5b6000613dfd826130ac565b91507fffffffffffffffffffffffffffffffffffffffffffffffffffffffffffffffff8203613e2f57613e2e613dc3565b5b600182019050919050565b7f7265717565737420696420646f65736e27742065786973740000000000000000600082015250565b6000613e7060188361342c565b9150613e7b82613e3a565b602082019050919050565b60006020820190508181036000830152613e9f81613e63565b9050919050565b7f7265717565737420696420616c72656164792065786973747300000000000000600082015250565b6000613edc60198361342c565b9150613ee782613ea6565b602082019050919050565b60006020820190508181036000830152613f0b81613ecf565b9050919050565b7f4e6f7420616e206f776e6572206f722072657175657374206f776e6572000000600082015250565b6000613f48601d8361342c565b9150613f5382613f12565b602082019050919050565b60006020820190508181036000830152613f7781613f3b565b9050919050565b6000613f89826130ac565b9150613f94836130ac565b9250828203905081811115613fac57613fab613dc3565b5b92915050565b7f4e487b7100000000000000000000000000000000000000000000000000000000600052602260045260246000fd5b60006002820490506001821680613ff957607f821691505b60208210810361400c5761400b613fb2565b5b50919050565b6000819050919050565b600061403761403261402d84614012565b61359b565b613009565b9050919050565b6140478161401c565b82525050565b6000602082019050614062600083018461403e565b92915050565b600080fd5b600080fd5b600080fd5b6000808335600160200384360303811261409457614093614068565b5b80840192508235915067ffffffffffffffff8211156140b6576140b561406d565b5b6020830192506001820236038313156140d2576140d1614072565b5b509250929050565b600080833560016020038436030381126140f7576140f6614068565b5b80840192508235915067ffffffffffffffff8211156141195761411861406d565b5b60208301925060018202360383131561413557614134614072565b5b509250929050565b6000614149838561342c565b9350614156838584613aa2565b61415f836132de565b840190509392505050565b600082825260208201905092915050565b6000614187838561416a565b9350614194838584613aa2565b61419d836132de565b840190509392505050565b600060608201905081810360008301526141c381878961413d565b90506141d2602083018661375e565b81810360408301526141e581848661417b565b90509695505050505050565b600081905092915050565b600061420782613298565b61421181856141f1565b93506142218185602086016132b4565b80840191505092915050565b600061423982846141fc565b915081905092915050565b7f56616c696461746f72206973206e6f742077686974656c697374656400000000600082015250565b600061427a601c8361342c565b915061428582614244565b602082019050919050565b600060208201905081810360008301526142a98161426d565b9050919050565b60007fffffffff0000000000000000000000000000000000000000000000000000000082169050919050565b6142e5816142b0565b82525050565b600060208201905061430060008301846142dc565b92915050565b61430f81613076565b811461431a57600080fd5b50565b60008151905061432c81614306565b92915050565b60006020828403121561434857614347612edc565b5b60006143568482850161431d565b91505092915050565b7f56616c696461746f7220646f65736e277420737570706f72742072656c65766160008201527f6e7420696e746572666163650000000000000000000000000000000000000000602082015250565b60006143bb602c8361342c565b91506143c68261435f565b604082019050919050565b600060208201905081810360008301526143ea816143ae565b9050919050565b7f4c656e6774682073686f756c642062652067726561746572207468616e203000600082015250565b6000614427601f8361342c565b9150614432826143f1565b602082019050919050565b600060208201905081810360008301526144568161441a565b9050919050565b7f4c656e677468206c696d69742065786365656465640000000000000000000000600082015250565b600061449360158361342c565b915061449e8261445d565b602082019050919050565b600060208201905081810360008301526144c281614486565b9050919050565b7f537461727420696e646578206f7574206f6620626f756e647300000000000000600082015250565b60006144ff60198361342c565b915061450a826144c9565b602082019050919050565b6000602082019050818103600083015261452e816144f2565b9050919050565b6000614540826130ac565b915061454b836130ac565b925082820190508082111561456357614562613dc3565b5b92915050565b7f526571756573742069732064697361626c656400000000000000000000000000600082015250565b600061459f60138361342c565b91506145aa82614569565b602082019050919050565b600060208201905081810360008301526145ce81614592565b9050919050565b600082905092915050565b60008190508160005260206000209050919050565b60006020601f8301049050919050565b600082821b905092915050565b6000600883026146427fffffffffffffffffffffffffffffffffffffffffffffffffffffffffffffffff82614605565b61464c8683614605565b95508019841693508086168417925050509392505050565b600061467f61467a614675846130ac565b61359b565b6130ac565b9050919050565b6000819050919050565b61469983614664565b6146ad6146a582614686565b848454614612565b825550505050565b600090565b6146c26146b5565b6146cd818484614690565b505050565b5b818110156146f1576146e66000826146ba565b6001810190506146d3565b5050565b601f82111561473657614707816145e0565b614710846145f5565b8101602085101561471f578190505b61473361472b856145f5565b8301826146d2565b50505b505050565b600082821c905092915050565b60006147596000198460080261473b565b1980831691505092915050565b60006147728383614748565b9150826002028217905092915050565b61478c83836145d5565b67ffffffffffffffff8111156147a5576147a46139f6565b5b6147af8254613fe1565b6147ba8282856146f5565b6000601f8311600181146147e957600084156147d7578287013590505b6147e18582614766565b865550614849565b601f1984166147f7866145e0565b60005b8281101561481f578489013582556001820191506020850194506020810190506147fa565b8683101561483c5784890135614838601f891682614748565b8355505b6001600288020188555050505b50505050505050565b61485d838383614782565b505050565b6000813561486f816134aa565b80915050919050565b60008160001b9050919050565b600073ffffffffffffffffffffffffffffffffffffffff6148a584614878565b9350801983169250808416831791505092915050565b60006148c6826135a5565b9050919050565b60006148d8826148bb565b9050919050565b6000819050919050565b6148f2826148cd565b6149056148fe826148df565b8354614885565b8255505050565b600082905092915050565b60008190508160005260206000209050919050565b601f82111561496d5761493e81614917565b614947846145f5565b81016020851015614956578190505b61496a614962856145f5565b8301826146d2565b50505b505050565b61497c838361490c565b67ffffffffffffffff811115614995576149946139f6565b5b61499f8254613fe1565b6149aa82828561492c565b6000601f8311600181146149d957600084156149c7578287013590505b6149d18582614766565b865550614a39565b601f1984166149e786614917565b60005b82811015614a0f578489013582556001820191506020850194506020810190506149ea565b86831015614a2c5784890135614a28601f891682614748565b8355505b6001600288020188555050505b50505050505050565b614a4d838383614972565b505050565b6000810160008301614a648185614077565b614a6f818386614852565b50505050600181016020830180614a8581614862565b9050614a9181846148e9565b5050506002810160408301614aa681856140da565b614ab1818386614a42565b505050505050565b614ac38282614a52565b5050565b6000614ada614ad584613a71565b613a56565b905082815260208101848484011115614af657614af56139f1565b5b614b018482856132b4565b509392505050565b600082601f830112614b1e57614b1d612f44565b5b8151614b2e848260208601614ac7565b91505092915050565b600060208284031215614b4d57614b4c612edc565b5b600082015167ffffffffffffffff811115614b6b57614b6a612ee1565b5b614b7784828501614b09565b91505092915050565b614b8982613298565b67ffffffffffffffff811115614ba257614ba16139f6565b5b614bac8254613fe1565b614bb78282856146f5565b600060209050601f831160018114614bea5760008415614bd8578287015190505b614be28582614766565b865550614c4a565b601f198416614bf8866145e0565b60005b82811015614c2057848901518255600182019150602085019450602081019050614bfb565b86831015614c3d5784890151614c39601f891682614748565b8355505b6001600288020188555050505b505050505050565b600082825260208201905092915050565b600080fd5b82818337505050565b6000614c7d8385614c52565b93507f07ffffffffffffffffffffffffffffffffffffffffffffffffffffffffffffff831115614cb057614caf614c63565b5b602083029250614cc1838584614c68565b82840190509392505050565b614cd960408383614c68565b5050565b600060029050919050565b600081905092915050565b6000819050919050565b614d0960408383614c68565b5050565b6000614d198383614cfd565b60408301905092915050565b600082905092915050565b6000604082019050919050565b614d4681614cdd565b614d508184614ce8565b9250614d5b82614cf3565b8060005b83811015614d9457614d718284614d25565b614d7b8782614d0d565b9650614d8683614d30565b925050600181019050614d5f565b505050505050565b6000614da7826135fa565b614db1818561416a565b9350614dc18185602086016132b4565b614dca816132de565b840191505092915050565b6000610160820190508181036000830152614df181898b614c71565b9050614e006020830188614ccd565b614e0d6060830187614d3d565b614e1a60e0830186614ccd565b818103610120830152614e2d8185614d9c565b9050614e3d61014083018461375e565b98975050505050505050565b600067ffffffffffffffff821115614e6457614e636139f6565b5b602082029050602081019050919050565b600080fd5b600080fd5b600081519050614e8e81613503565b92915050565b600060408284031215614eaa57614ea9614e75565b5b614eb46040613a56565b9050600082015167ffffffffffffffff811115614ed457614ed3614e7a565b5b614ee084828501614b09565b6000830152506020614ef484828501614e7f565b60208301525092915050565b6000614f13614f0e84614e49565b613a56565b90508083825260208201905060208402830185811115614f3657614f35612f4e565b5b835b81811015614f7d57805167ffffffffffffffff811115614f5b57614f5a612f44565b5b808601614f688982614e94565b85526020850194505050602081019050614f38565b5050509392505050565b600082601f830112614f9c57614f9b612f44565b5b8151614fac848260208601614f00565b91505092915050565b600060208284031215614fcb57614fca612edc565b5b600082015167ffffffffffffffff811115614fe957614fe8612ee1565b5b614ff584828501614f87565b9150509291505056fea26469706673582212206a53f5059bcda74e79bbf18c604ff088de41ab82a091815b4d84f0949c210f7464736f6c63430008140033",
  "linkReferences": {},
  "deployedLinkReferences": {}
}